{
  "contractName": "Voting",
  "abi": [
    {
      "anonymous": false,
      "inputs": [
        {
          "indexed": true,
          "internalType": "address",
          "name": "previousOwner",
          "type": "address"
        },
        {
          "indexed": true,
          "internalType": "address",
          "name": "newOwner",
          "type": "address"
        }
      ],
      "name": "OwnershipTransferred",
      "type": "event"
    },
    {
      "anonymous": false,
      "inputs": [
        {
          "indexed": false,
          "internalType": "uint256",
          "name": "proposalId",
          "type": "uint256"
        },
        {
          "indexed": false,
          "internalType": "string",
          "name": "description",
          "type": "string"
        }
      ],
      "name": "ProposalRegistered",
      "type": "event"
    },
    {
      "anonymous": false,
      "inputs": [
        {
          "indexed": false,
          "internalType": "address",
          "name": "voter",
          "type": "address"
        },
        {
          "indexed": false,
          "internalType": "uint256",
          "name": "proposalId",
          "type": "uint256"
        }
      ],
      "name": "Voted",
      "type": "event"
    },
    {
      "anonymous": false,
      "inputs": [
        {
          "indexed": false,
          "internalType": "address",
          "name": "voterAddress",
          "type": "address"
        }
      ],
      "name": "VoterRegistered",
      "type": "event"
    },
    {
      "anonymous": false,
      "inputs": [
        {
          "indexed": false,
          "internalType": "enum Voting.WorkflowStatus",
          "name": "previousStatus",
          "type": "uint8"
        },
        {
          "indexed": false,
          "internalType": "enum Voting.WorkflowStatus",
          "name": "newStatus",
          "type": "uint8"
        }
      ],
      "name": "WorkflowStatusChange",
      "type": "event"
    },
    {
      "inputs": [],
      "name": "owner",
      "outputs": [
        {
          "internalType": "address",
          "name": "",
          "type": "address"
        }
      ],
      "stateMutability": "view",
      "type": "function",
      "constant": true
    },
    {
      "inputs": [],
      "name": "renounceOwnership",
      "outputs": [],
      "stateMutability": "nonpayable",
      "type": "function"
    },
    {
      "inputs": [
        {
          "internalType": "address",
          "name": "newOwner",
          "type": "address"
        }
      ],
      "name": "transferOwnership",
      "outputs": [],
      "stateMutability": "nonpayable",
      "type": "function"
    },
    {
      "inputs": [],
      "name": "winningProposalID",
      "outputs": [
        {
          "internalType": "uint256",
          "name": "",
          "type": "uint256"
        }
      ],
      "stateMutability": "view",
      "type": "function",
      "constant": true
    },
    {
      "inputs": [],
      "name": "workflowStatus",
      "outputs": [
        {
          "internalType": "enum Voting.WorkflowStatus",
          "name": "",
          "type": "uint8"
        }
      ],
      "stateMutability": "view",
      "type": "function",
      "constant": true
    },
    {
      "inputs": [
        {
          "internalType": "address",
          "name": "_addr",
          "type": "address"
        }
      ],
      "name": "getVoter",
      "outputs": [
        {
          "components": [
            {
              "internalType": "bool",
              "name": "isRegistered",
              "type": "bool"
            },
            {
              "internalType": "bool",
              "name": "hasVoted",
              "type": "bool"
            },
            {
              "internalType": "uint256",
              "name": "votedProposalId",
              "type": "uint256"
            }
          ],
          "internalType": "struct Voting.Voter",
          "name": "",
          "type": "tuple"
        }
      ],
      "stateMutability": "view",
      "type": "function",
      "constant": true
    },
    {
      "inputs": [
        {
          "internalType": "uint256",
          "name": "_id",
          "type": "uint256"
        }
      ],
      "name": "getOneProposal",
      "outputs": [
        {
          "components": [
            {
              "internalType": "string",
              "name": "description",
              "type": "string"
            },
            {
              "internalType": "uint256",
              "name": "voteCount",
              "type": "uint256"
            }
          ],
          "internalType": "struct Voting.Proposal",
          "name": "",
          "type": "tuple"
        }
      ],
      "stateMutability": "view",
      "type": "function",
      "constant": true
    },
    {
      "inputs": [
        {
          "internalType": "address",
          "name": "_addr",
          "type": "address"
        }
      ],
      "name": "addVoter",
      "outputs": [],
      "stateMutability": "nonpayable",
      "type": "function"
    },
    {
      "inputs": [
        {
          "internalType": "string",
          "name": "_desc",
          "type": "string"
        }
      ],
      "name": "addProposal",
      "outputs": [],
      "stateMutability": "nonpayable",
      "type": "function"
    },
    {
      "inputs": [
        {
          "internalType": "uint256",
          "name": "_id",
          "type": "uint256"
        }
      ],
      "name": "vote",
      "outputs": [],
      "stateMutability": "nonpayable",
      "type": "function"
    },
    {
      "inputs": [],
      "name": "startProposalsRegistering",
      "outputs": [],
      "stateMutability": "nonpayable",
      "type": "function"
    },
    {
      "inputs": [],
      "name": "endProposalsRegistering",
      "outputs": [],
      "stateMutability": "nonpayable",
      "type": "function"
    },
    {
      "inputs": [],
      "name": "startVotingSession",
      "outputs": [],
      "stateMutability": "nonpayable",
      "type": "function"
    },
    {
      "inputs": [],
      "name": "endVotingSession",
      "outputs": [],
      "stateMutability": "nonpayable",
      "type": "function"
    },
    {
      "inputs": [],
      "name": "tallyVotes",
      "outputs": [],
      "stateMutability": "nonpayable",
      "type": "function"
    }
  ],
  "bytecode": "0x60806040526064600260006101000a81548160ff021916908360ff1602179055503480156200002d57600080fd5b50620000606200004b62000066640100000000026401000000009004565b6200006e640100000000026401000000009004565b62000132565b600033905090565b60008060009054906101000a900473ffffffffffffffffffffffffffffffffffffffff169050816000806101000a81548173ffffffffffffffffffffffffffffffffffffffff021916908373ffffffffffffffffffffffffffffffffffffffff1602179055508173ffffffffffffffffffffffffffffffffffffffff168173ffffffffffffffffffffffffffffffffffffffff167f8be0079c531659141344cd1fd0a4f28419497f9722a3daafe3b4186f6b6457e060405160405180910390a35050565b6126b280620001426000396000f3fe608060405234801561001057600080fd5b5060043610610112576000357c010000000000000000000000000000000000000000000000000000000090048063a7bfab16116100b4578063d4f50f9811610083578063d4f50f981461020b578063ee74c6781461023b578063f2fde38b14610245578063f4ab9adf1461026157610112565b8063a7bfab16146101cf578063bdc01431146101d9578063c7038a4e146101f7578063c88af42f1461020157610112565b8063715018a6116100f0578063715018a6146101595780638da5cb5b14610163578063a1edffa214610181578063a2788cce1461019f57610112565b80630121b93f146101175780632fdae3c514610133578063378a21781461014f575b600080fd5b610131600480360381019061012c91906117c9565b61027d565b005b61014d6004803603810190610148919061193c565b610579565b005b61015761081c565b005b6101616109fd565b005b61016b610a85565b60405161017891906119c6565b60405180910390f35b610189610aae565b6040516101969190611a58565b60405180910390f35b6101b960048036038101906101b491906117c9565b610ac1565b6040516101c69190611b47565b60405180910390f35b6101d7610c28565b005b6101e1610d82565b6040516101ee9190611b78565b60405180910390f35b6101ff610d88565b005b610209610ee2565b005b61022560048036038101906102209190611bbf565b61103b565b6040516102329190611c49565b60405180910390f35b610243611163565b005b61025f600480360381019061025a9190611bbf565b6112bd565b005b61027b60048036038101906102769190611bbf565b6113b4565b005b600460003373ffffffffffffffffffffffffffffffffffffffff1673ffffffffffffffffffffffffffffffffffffffff16815260200190815260200160002060000160009054906101000a900460ff1661030c576040517f08c379a000000000000000000000000000000000000000000000000000000000815260040161030390611cc1565b60405180910390fd5b600360058111156103205761031f6119e1565b5b600260019054906101000a900460ff166005811115610342576103416119e1565b5b14610382576040517f08c379a000000000000000000000000000000000000000000000000000000000815260040161037990611d53565b60405180910390fd5b60011515600460003373ffffffffffffffffffffffffffffffffffffffff1673ffffffffffffffffffffffffffffffffffffffff16815260200190815260200160002060000160019054906101000a900460ff16151503610418576040517f08c379a000000000000000000000000000000000000000000000000000000000815260040161040f90611dbf565b60405180910390fd5b600380549050811115610460576040517f08c379a000000000000000000000000000000000000000000000000000000000815260040161045790611e2b565b60405180910390fd5b80600460003373ffffffffffffffffffffffffffffffffffffffff1673ffffffffffffffffffffffffffffffffffffffff168152602001908152602001600020600101819055506001600460003373ffffffffffffffffffffffffffffffffffffffff1673ffffffffffffffffffffffffffffffffffffffff16815260200190815260200160002060000160016101000a81548160ff0219169083151502179055506003818154811061051657610515611e4b565b5b9060005260206000209060020201600101600081548092919061053890611ea9565b91905055507f4d99b957a2bc29a30ebd96a7be8e68fe50a3c701db28a91436490b7d53870ca4338260405161056e929190611ef1565b60405180910390a150565b600460003373ffffffffffffffffffffffffffffffffffffffff1673ffffffffffffffffffffffffffffffffffffffff16815260200190815260200160002060000160009054906101000a900460ff16610608576040517f08c379a00000000000000000000000000000000000000000000000000000000081526004016105ff90611cc1565b60405180910390fd5b6001600581111561061c5761061b6119e1565b5b600260019054906101000a900460ff16600581111561063e5761063d6119e1565b5b1461067e576040517f08c379a000000000000000000000000000000000000000000000000000000000815260040161067590611f66565b60405180910390fd5b60405160200161068d90611fac565b60405160208183030381529060405280519060200120816040516020016106b49190612005565b604051602081830303815290604052805190602001200361070a576040517f08c379a000000000000000000000000000000000000000000000000000000000815260040161070190612099565b60405180910390fd5b600260009054906101000a900460ff1660ff166003805490501115610764576040517f08c379a000000000000000000000000000000000000000000000000000000000815260040161075b9061212b565b60405180910390fd5b61076c61169d565b818160000181905250600381908060018154018082558091505060019003906000526020600020906002020160009091909190915060008201518160000190805190602001906107bd9291906116b7565b506020820151816001015550507f7c33c4b6ed18ab3f65fdeb25d41356291f7ec877c0db0af1a821ad5c444b4aeb60016003805490506107fd919061214b565b826000015160405161081092919061217f565b60405180910390a15050565b6108246115d1565b73ffffffffffffffffffffffffffffffffffffffff16610842610a85565b73ffffffffffffffffffffffffffffffffffffffff1614610898576040517f08c379a000000000000000000000000000000000000000000000000000000000815260040161088f906121fb565b60405180910390fd5b600460058111156108ac576108ab6119e1565b5b600260019054906101000a900460ff1660058111156108ce576108cd6119e1565b5b1461090e576040517f08c379a00000000000000000000000000000000000000000000000000000000081526004016109059061228d565b60405180910390fd5b600080600090505b60038054905081101561098c576003828154811061093757610936611e4b565b5b9060005260206000209060020201600101546003828154811061095d5761095c611e4b565b5b9060005260206000209060020201600101541115610979578091505b808061098490611ea9565b915050610916565b50806001819055506005600260016101000a81548160ff021916908360058111156109ba576109b96119e1565b5b02179055507f0a97a4ee45751e2abf3e4fc8946939630b11b371ea8ae39ccdc3056e98f5cc3f600460056040516109f29291906122ad565b60405180910390a150565b610a056115d1565b73ffffffffffffffffffffffffffffffffffffffff16610a23610a85565b73ffffffffffffffffffffffffffffffffffffffff1614610a79576040517f08c379a0000000000000000000000000000000000000000000000000000000008152600401610a70906121fb565b60405180910390fd5b610a8360006115d9565b565b60008060009054906101000a900473ffffffffffffffffffffffffffffffffffffffff16905090565b600260019054906101000a900460ff1681565b610ac961169d565b600460003373ffffffffffffffffffffffffffffffffffffffff1673ffffffffffffffffffffffffffffffffffffffff16815260200190815260200160002060000160009054906101000a900460ff16610b58576040517f08c379a0000000000000000000000000000000000000000000000000000000008152600401610b4f90611cc1565b60405180910390fd5b60038281548110610b6c57610b6b611e4b565b5b9060005260206000209060020201604051806040016040529081600082018054610b9590612305565b80601f0160208091040260200160405190810160405280929190818152602001828054610bc190612305565b8015610c0e5780601f10610be357610100808354040283529160200191610c0e565b820191906000526020600020905b815481529060010190602001808311610bf157829003601f168201915b505050505081526020016001820154815250509050919050565b610c306115d1565b73ffffffffffffffffffffffffffffffffffffffff16610c4e610a85565b73ffffffffffffffffffffffffffffffffffffffff1614610ca4576040517f08c379a0000000000000000000000000000000000000000000000000000000008152600401610c9b906121fb565b60405180910390fd5b60036005811115610cb857610cb76119e1565b5b600260019054906101000a900460ff166005811115610cda57610cd96119e1565b5b14610d1a576040517f08c379a0000000000000000000000000000000000000000000000000000000008152600401610d1190611d53565b60405180910390fd5b6004600260016101000a81548160ff02191690836005811115610d4057610d3f6119e1565b5b02179055507f0a97a4ee45751e2abf3e4fc8946939630b11b371ea8ae39ccdc3056e98f5cc3f60036004604051610d789291906122ad565b60405180910390a1565b60015481565b610d906115d1565b73ffffffffffffffffffffffffffffffffffffffff16610dae610a85565b73ffffffffffffffffffffffffffffffffffffffff1614610e04576040517f08c379a0000000000000000000000000000000000000000000000000000000008152600401610dfb906121fb565b60405180910390fd5b60006005811115610e1857610e176119e1565b5b600260019054906101000a900460ff166005811115610e3a57610e396119e1565b5b14610e7a576040517f08c379a0000000000000000000000000000000000000000000000000000000008152600401610e71906123a8565b60405180910390fd5b6001600260016101000a81548160ff02191690836005811115610ea057610e9f6119e1565b5b02179055507f0a97a4ee45751e2abf3e4fc8946939630b11b371ea8ae39ccdc3056e98f5cc3f60006001604051610ed89291906122ad565b60405180910390a1565b610eea6115d1565b73ffffffffffffffffffffffffffffffffffffffff16610f08610a85565b73ffffffffffffffffffffffffffffffffffffffff1614610f5e576040517f08c379a0000000000000000000000000000000000000000000000000000000008152600401610f55906121fb565b60405180910390fd5b60016005811115610f7257610f716119e1565b5b600260019054906101000a900460ff166005811115610f9457610f936119e1565b5b14610fd4576040517f08c379a0000000000000000000000000000000000000000000000000000000008152600401610fcb9061243a565b60405180910390fd5b60028060016101000a81548160ff02191690836005811115610ff957610ff86119e1565b5b02179055507f0a97a4ee45751e2abf3e4fc8946939630b11b371ea8ae39ccdc3056e98f5cc3f600160026040516110319291906122ad565b60405180910390a1565b61104361173d565b600460003373ffffffffffffffffffffffffffffffffffffffff1673ffffffffffffffffffffffffffffffffffffffff16815260200190815260200160002060000160009054906101000a900460ff166110d2576040517f08c379a00000000000000000000000000000000000000000000000000000000081526004016110c990611cc1565b60405180910390fd5b600460008373ffffffffffffffffffffffffffffffffffffffff1673ffffffffffffffffffffffffffffffffffffffff1681526020019081526020016000206040518060600160405290816000820160009054906101000a900460ff161515151581526020016000820160019054906101000a900460ff161515151581526020016001820154815250509050919050565b61116b6115d1565b73ffffffffffffffffffffffffffffffffffffffff16611189610a85565b73ffffffffffffffffffffffffffffffffffffffff16146111df576040517f08c379a00000000000000000000000000000000000000000000000000000000081526004016111d6906121fb565b60405180910390fd5b600260058111156111f3576111f26119e1565b5b600260019054906101000a900460ff166005811115611215576112146119e1565b5b14611255576040517f08c379a000000000000000000000000000000000000000000000000000000000815260040161124c906124cc565b60405180910390fd5b6003600260016101000a81548160ff0219169083600581111561127b5761127a6119e1565b5b02179055507f0a97a4ee45751e2abf3e4fc8946939630b11b371ea8ae39ccdc3056e98f5cc3f600260036040516112b39291906122ad565b60405180910390a1565b6112c56115d1565b73ffffffffffffffffffffffffffffffffffffffff166112e3610a85565b73ffffffffffffffffffffffffffffffffffffffff1614611339576040517f08c379a0000000000000000000000000000000000000000000000000000000008152600401611330906121fb565b60405180910390fd5b600073ffffffffffffffffffffffffffffffffffffffff168173ffffffffffffffffffffffffffffffffffffffff16036113a8576040517f08c379a000000000000000000000000000000000000000000000000000000000815260040161139f9061255e565b60405180910390fd5b6113b1816115d9565b50565b6113bc6115d1565b73ffffffffffffffffffffffffffffffffffffffff166113da610a85565b73ffffffffffffffffffffffffffffffffffffffff1614611430576040517f08c379a0000000000000000000000000000000000000000000000000000000008152600401611427906121fb565b60405180910390fd5b60006005811115611444576114436119e1565b5b600260019054906101000a900460ff166005811115611466576114656119e1565b5b146114a6576040517f08c379a000000000000000000000000000000000000000000000000000000000815260040161149d906125f0565b60405180910390fd5b60011515600460008373ffffffffffffffffffffffffffffffffffffffff1673ffffffffffffffffffffffffffffffffffffffff16815260200190815260200160002060000160009054906101000a900460ff1615150361153c576040517f08c379a00000000000000000000000000000000000000000000000000000000081526004016115339061265c565b60405180910390fd5b6001600460008373ffffffffffffffffffffffffffffffffffffffff1673ffffffffffffffffffffffffffffffffffffffff16815260200190815260200160002060000160006101000a81548160ff0219169083151502179055507fb6be2187d059cc2a55fe29e0e503b566e1e0f8c8780096e185429350acffd3dd816040516115c691906119c6565b60405180910390a150565b600033905090565b60008060009054906101000a900473ffffffffffffffffffffffffffffffffffffffff169050816000806101000a81548173ffffffffffffffffffffffffffffffffffffffff021916908373ffffffffffffffffffffffffffffffffffffffff1602179055508173ffffffffffffffffffffffffffffffffffffffff168173ffffffffffffffffffffffffffffffffffffffff167f8be0079c531659141344cd1fd0a4f28419497f9722a3daafe3b4186f6b6457e060405160405180910390a35050565b604051806040016040528060608152602001600081525090565b8280546116c390612305565b90600052602060002090601f0160209004810192826116e5576000855561172c565b82601f106116fe57805160ff191683800117855561172c565b8280016001018555821561172c579182015b8281111561172b578251825591602001919060010190611710565b5b5090506117399190611762565b5090565b6040518060600160405280600015158152602001600015158152602001600081525090565b5b8082111561177b576000816000905550600101611763565b5090565b6000604051905090565b600080fd5b600080fd5b6000819050919050565b6117a681611793565b81146117b157600080fd5b50565b6000813590506117c38161179d565b92915050565b6000602082840312156117df576117de611789565b5b60006117ed848285016117b4565b91505092915050565b600080fd5b600080fd5b6000601f19601f8301169050919050565b7f4e487b7100000000000000000000000000000000000000000000000000000000600052604160045260246000fd5b61184982611800565b810181811067ffffffffffffffff8211171561186857611867611811565b5b80604052505050565b600061187b61177f565b90506118878282611840565b919050565b600067ffffffffffffffff8211156118a7576118a6611811565b5b6118b082611800565b9050602081019050919050565b82818337600083830152505050565b60006118df6118da8461188c565b611871565b9050828152602081018484840111156118fb576118fa6117fb565b5b6119068482856118bd565b509392505050565b600082601f830112611923576119226117f6565b5b81356119338482602086016118cc565b91505092915050565b60006020828403121561195257611951611789565b5b600082013567ffffffffffffffff8111156119705761196f61178e565b5b61197c8482850161190e565b91505092915050565b600073ffffffffffffffffffffffffffffffffffffffff82169050919050565b60006119b082611985565b9050919050565b6119c0816119a5565b82525050565b60006020820190506119db60008301846119b7565b92915050565b7f4e487b7100000000000000000000000000000000000000000000000000000000600052602160045260246000fd5b60068110611a2157611a206119e1565b5b50565b6000819050611a3282611a10565b919050565b6000611a4282611a24565b9050919050565b611a5281611a37565b82525050565b6000602082019050611a6d6000830184611a49565b92915050565b600081519050919050565b600082825260208201905092915050565b60005b83811015611aad578082015181840152602081019050611a92565b83811115611abc576000848401525b50505050565b6000611acd82611a73565b611ad78185611a7e565b9350611ae7818560208601611a8f565b611af081611800565b840191505092915050565b611b0481611793565b82525050565b60006040830160008301518482036000860152611b278282611ac2565b9150506020830151611b3c6020860182611afb565b508091505092915050565b60006020820190508181036000830152611b618184611b0a565b905092915050565b611b7281611793565b82525050565b6000602082019050611b8d6000830184611b69565b92915050565b611b9c816119a5565b8114611ba757600080fd5b50565b600081359050611bb981611b93565b92915050565b600060208284031215611bd557611bd4611789565b5b6000611be384828501611baa565b91505092915050565b60008115159050919050565b611c0181611bec565b82525050565b606082016000820151611c1d6000850182611bf8565b506020820151611c306020850182611bf8565b506040820151611c436040850182611afb565b50505050565b6000606082019050611c5e6000830184611c07565b92915050565b600082825260208201905092915050565b7f596f75277265206e6f74206120766f7465720000000000000000000000000000600082015250565b6000611cab601283611c64565b9150611cb682611c75565b602082019050919050565b60006020820190508181036000830152611cda81611c9e565b9050919050565b7f566f74696e672073657373696f6e20686176656e74207374617274656420796560008201527f7400000000000000000000000000000000000000000000000000000000000000602082015250565b6000611d3d602183611c64565b9150611d4882611ce1565b604082019050919050565b60006020820190508181036000830152611d6c81611d30565b9050919050565b7f596f75206861766520616c726561647920766f74656400000000000000000000600082015250565b6000611da9601683611c64565b9150611db482611d73565b602082019050919050565b60006020820190508181036000830152611dd881611d9c565b9050919050565b7f50726f706f73616c206e6f7420666f756e640000000000000000000000000000600082015250565b6000611e15601283611c64565b9150611e2082611ddf565b602082019050919050565b60006020820190508181036000830152611e4481611e08565b9050919050565b7f4e487b7100000000000000000000000000000000000000000000000000000000600052603260045260246000fd5b7f4e487b7100000000000000000000000000000000000000000000000000000000600052601160045260246000fd5b6000611eb482611793565b91507fffffffffffffffffffffffffffffffffffffffffffffffffffffffffffffffff8203611ee657611ee5611e7a565b5b600182019050919050565b6000604082019050611f0660008301856119b7565b611f136020830184611b69565b9392505050565b7f50726f706f73616c7320617265206e6f7420616c6c6f77656420796574000000600082015250565b6000611f50601d83611c64565b9150611f5b82611f1a565b602082019050919050565b60006020820190508181036000830152611f7f81611f43565b9050919050565b50565b6000611f96600083611c64565b9150611fa182611f86565b600082019050919050565b60006020820190508181036000830152611fc581611f89565b9050919050565b6000611fd782611a73565b611fe18185611c64565b9350611ff1818560208601611a8f565b611ffa81611800565b840191505092915050565b6000602082019050818103600083015261201f8184611fcc565b905092915050565b7f566f7573206e6520706f7576657a20706173206e65207269656e2070726f706f60008201527f7365720000000000000000000000000000000000000000000000000000000000602082015250565b6000612083602383611c64565b915061208e82612027565b604082019050919050565b600060208201905081810360008301526120b281612076565b9050919050565b7f4f6e6c79203130302070726f706f73616c7320616c6c6f77656420666f72207360008201527f6563757269747920707572706f73650000000000000000000000000000000000602082015250565b6000612115602f83611c64565b9150612120826120b9565b604082019050919050565b6000602082019050818103600083015261214481612108565b9050919050565b600061215682611793565b915061216183611793565b92508282101561217457612173611e7a565b5b828203905092915050565b60006040820190506121946000830185611b69565b81810360208301526121a68184611fcc565b90509392505050565b7f4f776e61626c653a2063616c6c6572206973206e6f7420746865206f776e6572600082015250565b60006121e5602083611c64565b91506121f0826121af565b602082019050919050565b60006020820190508181036000830152612214816121d8565b9050919050565b7f43757272656e7420737461747573206973206e6f7420766f74696e672073657360008201527f73696f6e20656e64656400000000000000000000000000000000000000000000602082015250565b6000612277602a83611c64565b91506122828261221b565b604082019050919050565b600060208201905081810360008301526122a68161226a565b9050919050565b60006040820190506122c26000830185611a49565b6122cf6020830184611a49565b9392505050565b7f4e487b7100000000000000000000000000000000000000000000000000000000600052602260045260246000fd5b6000600282049050600182168061231d57607f821691505b6020821081036123305761232f6122d6565b5b50919050565b7f5265676973746572696e672070726f706f73616c732063616e7420626520737460008201527f6172746564206e6f770000000000000000000000000000000000000000000000602082015250565b6000612392602983611c64565b915061239d82612336565b604082019050919050565b600060208201905081810360008301526123c181612385565b9050919050565b7f5265676973746572696e672070726f706f73616c7320686176656e742073746160008201527f7274656420796574000000000000000000000000000000000000000000000000602082015250565b6000612424602883611c64565b915061242f826123c8565b604082019050919050565b6000602082019050818103600083015261245381612417565b9050919050565b7f5265676973746572696e672070726f706f73616c73207068617365206973206e60008201527f6f742066696e6973686564000000000000000000000000000000000000000000602082015250565b60006124b6602b83611c64565b91506124c18261245a565b604082019050919050565b600060208201905081810360008301526124e5816124a9565b9050919050565b7f4f776e61626c653a206e6577206f776e657220697320746865207a65726f206160008201527f6464726573730000000000000000000000000000000000000000000000000000602082015250565b6000612548602683611c64565b9150612553826124ec565b604082019050919050565b600060208201905081810360008301526125778161253b565b9050919050565b7f566f7465727320726567697374726174696f6e206973206e6f74206f70656e2060008201527f7965740000000000000000000000000000000000000000000000000000000000602082015250565b60006125da602383611c64565b91506125e58261257e565b604082019050919050565b60006020820190508181036000830152612609816125cd565b9050919050565b7f416c726561647920726567697374657265640000000000000000000000000000600082015250565b6000612646601283611c64565b915061265182612610565b602082019050919050565b6000602082019050818103600083015261267581612639565b905091905056fea2646970667358221220a211bef8bb34e59a60582cd083351006a7fd5062af9995e8e8a807dbe6347da464736f6c634300080d0033",
  "immutableReferences": {},
  "source": "// SPDX-License-Identifier: MIT\n\npragma solidity 0.8.13;\n\nimport \"@openzeppelin/contracts/access/Ownable.sol\";\n\n/**\n * @title A simple Voting smart contract\n * @author Cyril Castagnet && Jrmie Samson\n * @dev Simple voting system deployed with truffle\n */\ncontract Voting is Ownable {\n    struct Voter {\n        bool isRegistered;\n        bool hasVoted;\n        uint votedProposalId;\n    }\n\n    struct Proposal {\n        string description;\n        uint voteCount;\n    }\n\n    enum  WorkflowStatus {\n        RegisteringVoters,\n        ProposalsRegistrationStarted,\n        ProposalsRegistrationEnded,\n        VotingSessionStarted,\n        VotingSessionEnded,\n        VotesTallied\n    }\n\n    uint public winningProposalID;\n    uint8 arrayLimitation = 100;\n\n    WorkflowStatus public workflowStatus;\n    Proposal[] proposalsArray;\n    mapping (address => Voter) voters;\n\n    event VoterRegistered(address voterAddress);\n    event WorkflowStatusChange(WorkflowStatus previousStatus, WorkflowStatus newStatus);\n    event ProposalRegistered(uint proposalId, string description);\n    event Voted (address voter, uint proposalId);\n\n    /**\n     * @dev Check if user is a registered voter\n     */\n    modifier onlyVoters() {\n        require(voters[msg.sender].isRegistered, \"You're not a voter\");\n        _;\n    }\n\n    /**\n     * @dev Get a voter from a specified address\n     * @param _addr Voter's address\n     * @return Voter Voter object\n     */\n    function getVoter(address _addr) external onlyVoters view returns (Voter memory) {\n        return voters[_addr];\n    }\n\n    /**\n     * @dev Get a proposal from a specified proposal id\n     * @param _id Proposal id\n     * @return Proposal Proposal object\n     */\n    function getOneProposal(uint _id) external onlyVoters view returns (Proposal memory) {\n        return proposalsArray[_id];\n    }\n\n    /**\n     * @dev register a voter\n     * @param _addr Voter's address\n     */\n    function addVoter(address _addr) external onlyOwner {\n        require(workflowStatus == WorkflowStatus.RegisteringVoters, \"Voters registration is not open yet\");\n        require(voters[_addr].isRegistered != true, \"Already registered\");\n\n        voters[_addr].isRegistered = true;\n        emit VoterRegistered(_addr);\n    }\n\n    /**\n     * @dev Add a proposal by a voter\n     * @param _desc proposal description\n     */\n    function addProposal(string memory _desc) external onlyVoters {\n        require(workflowStatus == WorkflowStatus.ProposalsRegistrationStarted, \"Proposals are not allowed yet\");\n        require(keccak256(abi.encode(_desc)) != keccak256(abi.encode(\"\")), \"Vous ne pouvez pas ne rien proposer\"); // facultatif\n        require(proposalsArray.length <= arrayLimitation, \"Only 100 proposals allowed for security purpose\");\n\n        Proposal memory proposal;\n        proposal.description = _desc;\n        proposalsArray.push(proposal);\n        emit ProposalRegistered(proposalsArray.length-1, proposal.description);\n    }\n\n    /**\n     * @dev vote for a proposal by a voter\n     * @param _id proposal id\n     */\n    function vote( uint _id) external onlyVoters {\n        require(workflowStatus == WorkflowStatus.VotingSessionStarted, \"Voting session havent started yet\");\n        require(voters[msg.sender].hasVoted != true, \"You have already voted\");\n        require(_id <= proposalsArray.length, \"Proposal not found\");\n\n        voters[msg.sender].votedProposalId = _id;\n        voters[msg.sender].hasVoted = true;\n        proposalsArray[_id].voteCount++;\n\n        emit Voted(msg.sender, _id);\n    }\n\n    /**\n     * @dev Start proposal registration function for the owner\n     */\n    function startProposalsRegistering() external onlyOwner {\n        require(workflowStatus == WorkflowStatus.RegisteringVoters, \"Registering proposals cant be started now\");\n        workflowStatus = WorkflowStatus.ProposalsRegistrationStarted;\n        emit WorkflowStatusChange(WorkflowStatus.RegisteringVoters, WorkflowStatus.ProposalsRegistrationStarted);\n    }\n\n    /**\n     * @dev End proposal registration function for the owner\n     */\n    function endProposalsRegistering() external onlyOwner {\n        require(workflowStatus == WorkflowStatus.ProposalsRegistrationStarted, \"Registering proposals havent started yet\");\n        workflowStatus = WorkflowStatus.ProposalsRegistrationEnded;\n        emit WorkflowStatusChange(WorkflowStatus.ProposalsRegistrationStarted, WorkflowStatus.ProposalsRegistrationEnded);\n    }\n\n    /**\n     * @dev Start voting session function for the owner\n     */\n    function startVotingSession() external onlyOwner {\n        require(workflowStatus == WorkflowStatus.ProposalsRegistrationEnded, \"Registering proposals phase is not finished\");\n        workflowStatus = WorkflowStatus.VotingSessionStarted;\n        emit WorkflowStatusChange(WorkflowStatus.ProposalsRegistrationEnded, WorkflowStatus.VotingSessionStarted);\n    }\n\n    /**\n     * @dev End voting session function for the owner\n     */\n    function endVotingSession() external onlyOwner {\n        require(workflowStatus == WorkflowStatus.VotingSessionStarted, \"Voting session havent started yet\");\n        workflowStatus = WorkflowStatus.VotingSessionEnded;\n        emit WorkflowStatusChange(WorkflowStatus.VotingSessionStarted, WorkflowStatus.VotingSessionEnded);\n    }\n\n    /**\n     * @dev Tally vote function for the owner\n     */\n    function tallyVotes() external onlyOwner {\n        require(workflowStatus == WorkflowStatus.VotingSessionEnded, \"Current status is not voting session ended\");\n        uint _winningProposalId;\n        for (uint256 p = 0; p < proposalsArray.length; p++) {\n            if (proposalsArray[p].voteCount > proposalsArray[_winningProposalId].voteCount) {\n                _winningProposalId = p;\n            }\n        }\n        winningProposalID = _winningProposalId;\n\n        workflowStatus = WorkflowStatus.VotesTallied;\n        emit WorkflowStatusChange(WorkflowStatus.VotingSessionEnded, WorkflowStatus.VotesTallied);\n    }\n}",
  "sourcePath": "/home/jsamson/PhpstormProjects/alyra_voting/contracts/Voting.sol",
  "compiler": {
    "name": "solc",
    "version": "0.8.13+commit.abaa5c0e.Emscripten.clang"
  },
  "schemaVersion": "3.4.7",
  "updatedAt": "2022-04-24T15:08:02.767Z",
  "networkType": "ethereum",
  "devdoc": {
    "author": "Cyril Castagnet && Jrmie Samson",
    "details": "Simple voting system deployed with truffle",
    "kind": "dev",
    "methods": {
      "addProposal(string)": {
        "details": "Add a proposal by a voter",
        "params": {
          "_desc": "proposal description"
        }
      },
      "addVoter(address)": {
        "details": "register a voter",
        "params": {
          "_addr": "Voter's address"
        }
      },
      "endProposalsRegistering()": {
        "details": "End proposal registration function for the owner"
      },
      "endVotingSession()": {
        "details": "End voting session function for the owner"
      },
      "getOneProposal(uint256)": {
        "details": "Get a proposal from a specified proposal id",
        "params": {
          "_id": "Proposal id"
        },
        "returns": {
          "_0": "Proposal Proposal object"
        }
      },
      "getVoter(address)": {
        "details": "Get a voter from a specified address",
        "params": {
          "_addr": "Voter's address"
        },
        "returns": {
          "_0": "Voter Voter object"
        }
      },
      "owner()": {
        "details": "Returns the address of the current owner."
      },
      "renounceOwnership()": {
        "details": "Leaves the contract without owner. It will not be possible to call `onlyOwner` functions anymore. Can only be called by the current owner. NOTE: Renouncing ownership will leave the contract without an owner, thereby removing any functionality that is only available to the owner."
      },
      "startProposalsRegistering()": {
        "details": "Start proposal registration function for the owner"
      },
      "startVotingSession()": {
        "details": "Start voting session function for the owner"
      },
      "tallyVotes()": {
        "details": "Tally vote function for the owner"
      },
      "transferOwnership(address)": {
        "details": "Transfers ownership of the contract to a new account (`newOwner`). Can only be called by the current owner."
      },
      "vote(uint256)": {
        "details": "vote for a proposal by a voter",
        "params": {
          "_id": "proposal id"
        }
      }
    },
    "title": "A simple Voting smart contract",
    "version": 1
  },
  "userdoc": {
    "kind": "user",
    "methods": {},
    "version": 1
  }
}